:020000040000FA
:06000000CAEF01F012003E
:020006000000F8
:020008001200E4
:06001800CFEF00F0120022
:02001E00070ECB
:10002000926E0F01E00E386F936A070E806E816E3C
:1000300080CF6CF0AC84AC8AAB8EAB88810EAF6E97
:10004000010EB06E3A8D948C948EAF50E66EE66AD7
:100050003C0EE66E81EC01F0E552E552E5522BECE8
:1000600001F0610E00016D5D04E0010E00016C11F4
:1000700003D0FE0E00016C156C6F0A0EE66EE66A88
:10008000E66AE66A0BD8E552E552E552E5526A0E99
:10009000E66E78D8E5526CC081FFE3D7D9CFE6FF92
:1000A000E1CFD9FF080EE126DE6ADE6ADE6ADD6A8C
:1000B000DD52DD52FB0EDBCF00F0FC0EDBCF01F09A
:1000C000FD0EDBCF02F0FE0EDBCF03F0D9CFE9FF50
:1000D000DACFEAFF030EEB500318E8AE02D0033488
:1000E00008D00050EE5C0150EE580250EE5803501C
:1000F000EE583EE2040EDB6A050EDB6A060EDB6A92
:10010000070EDB6AFB0EDBCF00F0FC0EDBCF01F04D
:10011000FD0EDBCF02F0FE0EDBCF03F0D950040F53
:10012000E96EDACFEAFF030EEB500318E8AE02D017
:10013000033408D00050EE5C0150EE580250EE58E7
:100140000350EE580BE2D950040FE96EDACFEAFF04
:10015000EE2A000EEE22EE22EE22D4D7D9CFE9FF0E
:10016000DACFEAFFEE2A000EEE22EE22EE22A2D72E
:10017000080EE15C02E2E16AE552E16EE552E7CF8A
:10018000D9FF1200D9CFE6FFE1CFD9FFACA2FED74D
:0E019000FE0EDB50AD6EE552E7CFD9FF120038
:02019E00D8CFB8
:1001A000E4FFE0CFE4FFE46EDACFE4FFE2CFDAFF72
:1001B000E9CFE4FFEACFE4FFF6CFE4FFF7CFE4FFB7
:1001C000F5CFE4FFF3CFE4FFF4CFE4FFFACFE4FF91
:1001D00000EE04F0020EE80403E3EECFE4FFFBD7E9
:1001E00000EE00F0040EE80403E3EECFE4FFFBD7DB
:1001F000E6529EAA02D0AECF6DF06DC0E6FFC2EC13
:1002000000F0E552E55200EE03F0040EE80403E3CB
:10021000E5CFEDFFFBD700EE05F0020EE80403E3A7
:10022000E5CFEDFFFBD7E5CFFAFFE5CFF4FFE5CF54
:10023000F3FFE5CFF5FFE5CFF7FFE5CFF6FFE5CF1D
:10024000EAFFE5CFE9FFE5CFDAFFE550E5CFE0FFD4
:10025000E5CFD8FF1000D08EF28EF28CF1849F9AF9
:040260009D8A120061
:0C026400060EF66E000EF76E000EF86E2F
:1002700000010900F550656F0900F550666F03E154
:10028000656701D03DD00900F550606F0900F55059
:10029000616F0900F550626F09000900F550E96EC1
:1002A0000900F550EA6E090009000900F550636F76
:1002B0000900F550646F09000900F6CF67F0F7CF29
:1002C00068F0F8CF69F060C0F6FF61C0F7FF62C068
:1002D000F8FF0001635302E1645307E00900F550A1
:1002E000EE6E6307F8E26407F9D767C0F6FF68C0EF
:1002F000F7FF69C0F8FF00016507000E665BBFD716
:020300001200E9
:0E030200D9CFE6FFDACFE6FFE1CFD9FFE2CF99
:10031000DAFFAC6AAB6AFD0EDBB0AC88DBA202D0C0
:10032000AC8CAB8CDBB4AC8EDBA602D0AB8801D03E
:10033000AB8ADBB8AC84DBBAAB86DBAC02D09D8A7F
:1003400001D09D9ADBAE02D09D8801D09D98FB0E16
:10035000DB50AF6EFC0EDBCF01F001C000F0016A94
:100360000050B06EAC8AAB8EE552E5CFDAFFE7CF36
:04037000D9FF12009F
:0C037400000EF36E00EE00F0060E01D843
:100380001200EA6002D0EE6AFCD7F350E960120076
:04039000EE6AFCD73E
:0C03940015EE00F025EE00F0F86A059C64
:1003A00032EC01F004EC00F00FEC00F0FBD712008F
:020000040030CA
:01000100817D
:010003003CC0
:00000001FF
